:020000040800F2
:10280000D84E00200D9C0008119C000801290008EA
:10281000159C0008179C0008199C00080000000087
:102820000000000000000000000000001B9C0008E9
:102830001D9C0008000000001F9C000891820008F9
:10284000239C0008239C0008239C000829B300084F
:10285000239C0008239C00086BBA00087DBA00087E
:1028600085BA0008AFBA0008B7BA0008239C000870
:10287000239C0008239C0008239C0008239C00083C
:10288000239C0008239C0008239C0008239C00082C
:1028900013270108239C0008239C0008BFBA0008E6
:1028A000239C0008239C0008239C0008239C00080C
:1028B0001B2E0008239C0008FF900008239C0008A2
:1028C000239C0008239C0008239C0008239C0008EC
:1028D000239C0008CFA50008C3A70008FBA9000897
:1028E000239C0008BDB30008E9BA0008DFF80CD04B
:1028F0001AF0A0FD00480047D52D0008D84E002052
:1029000000BFFE48006800F4E060FD490843001D78
:10291000FA490860BFF3408F00BF00BFFEE710B563
:10292000044600221146204602F0E3FB10BD70472A
:1029300030B589B005460024F248F34BF34AA2F1C2
:1029400010010090A1F110000BF043FE06F01CFAFC
:10295000EF49F0480BF01AF8642102A80BF016F8C2
:10296000BBE0ED480068401CEB4908600020EB49E3
:1029700008600BF04AFE01F066F906F01CFCE8481E
:10298000006802F0A5F900F070FA03E09DF820005D
:1029900019F0D0FA08A9E3480AF000FE0028F5D0A3
:1029A000DA486438B0F80D0590B1D8486438B0F80A
:1029B0000D05DD4909680844D9490968884207D8E6
:1029C000FF2018F065FF18B9D5480068D64908609F
:1029D000D648007810B1FF2018F05AFF19F021F8FE
:1029E000D348007878B1D349C848643819F09FFCBF
:1029F00048B90020CE490870CE49C448643819F05F
:102A0000E0FC00F06AFACC48007878B1CB49BF48C6
:102A1000B13019F08CFC48B90020C7490870C7498B
:102A2000BA48B13019F0CDFC00F057FAC44800683C
:102A300010F0010F0AD1BA480068C2490968401A6B
:102A4000B2496439B1F8741088420FD2BC480068AA
:102A500010F0010F10D0B2480068BA490968401A56
:102A6000AA496439B1F87610884205D3AC480068A9
:102A7000B449086001F0B5FE05A80AF092FFA0B9BC
:102A8000601C84B24FF47A7105A80AF07FFF002021
:102A900000F0BCFF01F0F6F84FF4167094FBF0F173
:102AA00000FB114008B900F010FA02A80AF079FF03
:102AB00028B9642102A80AF069FF06F0ABF9A24820
:102AC000007A50B10021A048017201F08AFE012075
:102AD0009E49087000209E4908709E480AF061FFD8
:102AE00000287FF43EAF09B030BD08B5002000904B
:102AF00003F014FA02F0B4FA01209749086012E0DA
:102B000094480AF04EFF18B9944992480AF03EFFE3
:102B10006846FFF70DFF20B98948006810F0010FE3
:102B200001D0FFF704FFEBE730B502468C48C069DF
:102B300040F001008A49C8618A48B2FBF0F0401EAB
:102B40008904088540F2E730888500200880888065
:102B5000012088811C200C21002808DA0B071D0E9B
:102B6000664B0C3300F00F04241F1D5503E00B07C8
:102B70001C0E7D4B1C5400BF1C20012181404309C9
:102B80004FF0E02404EB8303C3F8001100BF4FF0C3
:102B90008040008840F001004FF08041088030BD47
:102BA00008B562B607F0AEF8012005F047FB3D20FE
:102BB0006B4988610846406840F4800048600846D8
:102BC000C06940F40000C8614FF000706749486078
:102BD00008F0C7FC08F0D4FD6548006820F0F0005C
:102BE000634908600846006840F030000860022031
:102BF0005F49143108605E48006820F470405C4909
:102C000008600846006840F44050086008205849B1
:102C1000143108605648001D006820F470205449A3
:102C2000091D08600846006840F480300860881478
:102C30004F49143108604248001F006820F070407E
:102C40003F49091F08600846006840F0805008604E
:102C500000F0DAFF3A48001F006820F00F00384902
:102C6000091F08600846006840F008000860344802
:102C7000001D006840F480703149091D086005F0AE
:102C80002BFB3C480068FFF74FFF03200123642221
:102C900011460090384805F007FB00F049FE06F0A9
:102CA000B5F802F020F90EF0FBFF04F0AAF804F0EA
:102CB0004BFA4FF4E1312F48006807F0A3FB0EF008
:102CC00034F82C49096848084FF4165107F0C4FC41
:102CD0002849096848084FF4E13107F0ADFD27A005
:102CE00007F074FE2CA007F071FE18F07DFD06F0D1
:102CF000A5FA0FF0A7FB1E48001D59E00CED00E0FF
:102D00000000FA05898D0008B18D0008C805002073
:102D1000C0D401004C050020400000200402002027
:102D200050020020E025002050000020E104002097
:102D300013030020D829002010030020B829002008
:102D40000808014048000020B00B00209C00002033
:102D50009D00002040050020FC010020005C2605AD
:102D60000010024040420F0000E400E0000001407B
:102D7000000C0140E0010020B01400207468696577
:102D80006E686169626C756540616D706D2E636F10
:102D90006D2E766E0D0A0000313330204E67757946
:102DA000656E204D696E6820486F616E670D0A0080
:102DB000006820F47000284908600846006840F464
:102DC00000100860481424491031086001200FF0F9
:102DD0005DFB08BD45F2555007F0F4FA042007F0FA
:102DE000F4FA40F6B83007F0F3FA07F0F4FA07F017
:102DF000F7FA002007F0E6FAFFF7D2FE00F0CDF870
:102E000000F014FF4FF47A7114480AF0BFFD01E09E
:102E1000FFF76BFEFCE77047704710B54FF080403E
:102E2000008A10F0010F15D04FF6FE704FF0804170
:102E300008820B480068401C094908600846006881
:102E40003221B0FBF1F201FB120018B9044800680E
:102E500005F0BDFA10BD0000040C0140340500204F
:102E600058000020FE490870704710B5FC480078F3
:102E7000052824D2DFE800F0030408111A0022E03C
:102E800003F0D6FE00F01FFD42F21071F5480AF083
:102E90007DFD0420F249087015E047F23051F148F9
:102EA0000AF074FD0420EE4908700CE0ED480AF0C9
:102EB00078FD18B903F0BCFE00F005FD03E003F057
:102EC000B7FE00F000FD00BF10BD10B540F2366245
:102ED000E549E64819F0FBF910BD2DE9F04740F24D
:102EE0003662E249E04819F05FFA08B9BDE8F087B8
:102EF00072B6DFF878930025002404E019F8040086
:102F00000544601C04B240F232608442F6D3D748D4
:102F1000C0F8325606F097FF00240DE0D24901EBCD
:102F2000842006F0D5FF0746042F03D006F097FF54
:102F300062B6DBE7601C04B2012CEFD9CB4E002453
:102F40001BE0A046E21704EB9272921056F8221092
:102F5000C54AA01807F08CF80746E11704EB9171F9
:102F6000891056F82110C04AA258914203D006F0A9
:102F700076FF62B6BAE7201D04B240F236608442A2
:102F8000DFD306F06CFF62B608F0FBF900F103082E
:102F9000404608F0E9F900BFA8E72DE9F041002517
:102FA000002640F23662B049B04819F090F9AF4FB0
:102FB00000BF002403E0385D0644601C04B240F208
:102FC00032608442F7D3A948D0F83206B04206D026
:102FD000FF2240F23661A54819F08BF90125A3487C
:102FE0000078FF2803D101250020A04908709F48E0
:102FF000807CFF2805D19EA19C48123019F0E1F990
:1030000001259A4890F8C204FF2804D19AA19D484E
:1030100019F0D7F90125954890F8E704FF2805D164
:1030200099A19848253019F0CCF901258F4890F8DE
:103030002400FF2803D08D4890F8240028B90125EA
:1030400094A18A48243019F0BCF9884890F83400DB
:10305000FF2805D101258CA18448343019F0B1F93D
:10306000824890F84400FF2803D0804890F844003C
:1030700078B98BA17D48443019F0A3F98BA17B4826
:10308000543019F09EF989A17848643019F099F903
:103090000125764890F87800FF2804D10020734974
:1030A00081F8780001257148B0F87900A0F57F41DA
:1030B000FF3906D06D48B0F87B00A0F57F41FF399D
:1030C00013D17620694981F879004521674880F855
:1030D0007A10A02180F87B10232180F87C1040F624
:1030E000D2706249A1F89C000125604890F87D00EB
:1030F000FF2805D16EA15D487D3019F062F90125E8
:103100005A48B0F89E00A0F57F41FF3906D05748D5
:10311000B0F8A000A0F57F41FF3913D176205349C4
:1031200081F89E004521514880F89F10A02180F829
:10313000A010232180F8A11040F6D2704B49A1F8CD
:10314000C1000125494890F8A200FF2805D158A1E7
:103150004648A23019F035F90125444890F8C300DB
:1031600048B1424890F8C300012804D000203F49EC
:1031700081F8C30001253D4890F8C400FF2804D120
:1031800000203A4981F8C40001253848B0F8C5004C
:10319000A0F57F41FF3906D03448B0F8C700A0F54C
:1031A0007F41FF3913D17620304981F8C500452190
:1031B0002E4880F8C610A02180F8C710232180F87F
:1031C000C8104CF250302949A1F8E80001252748E1
:1031D00090F8C900FF2805D135A12448C93019F05D
:1031E000F0F801252148B0F8EA00A0F57F41FF3949
:1031F00006D01E48B0F8EC00A0F57F41FF3913D18E
:1032000076201A4981F8EA004521184880F8EB1029
:10321000A02180F8EC10232180F8ED104CF2503002
:103220001249A1F80D010125104890F8EE00FF2881
:1032300005D11FA10D48EE3019F0C3F801250B4848
:1032400090F80F0148B1094890F80F01012804D007
:103250000120064981F80F010125044830E00000F3
:10326000650000205805002000F8010864050020D2
:103270004754343030564E00434152494D41474542
:1032800000000000260A002030393738373739323D
:103290003232000031323334353637380000000026
:1032A000696E7465726E6574000000006D6D730068
:1032B0003131382E36392E3136302E33350000007C
:1032C00090F81001FF2804D10020FE4981F8100178
:1032D0000125FC48B0F81101A0F57F41FF3906D067
:1032E000F848B0F81301A0F57F41FF3913D17620DB
:1032F000F44981F811014521F24880F81211A0210A
:1033000080F81311232180F8141140F6F220ED49C2
:10331000A1F834010125EB48B0F83601A0F57F4152
:10332000FF3906D0E748B0F83801A0F57F41FF39F2
:1033300013D17620E34981F836014521E14880F830
:103340003711A02180F83811232180F839114CF26F
:103350005030DC49A1F859010125DA4890F83A01CA
:10336000FF2805D1AFF2B801D74819F02AF8012596
:10337000D44890F85B0148B1D24890F85B0101282D
:1033800004D00120CF4981F85B010125CD4890F898
:103390005C01FF2804D10020CA4981F85C010125A5
:1033A00000243DE004EBC40000EB4411C648233088
:1033B00010F81100FF2831D1002104EBC40000EB0C
:1033C0004412C148233000F8121004EBC40000EB93
:1033D0004412BD48233000EB420080F8201004EB7B
:1033E000C40000EB4412B848233000EB420080F8E0
:1033F0002C1004EBC40000EB4412B348233000EB64
:10340000420080F8371004EBC40000EB4412AE48D1
:10341000233000EB420080F842100125601C04B20A
:103420000A2CBFDBA74890F89104FF2804D101259E
:103430000021A44880F89114A24890F89D04FF2828
:1034400004D100219F4880F89D1401259D48B0F8C3
:10345000AD0430B19B48B0F8AD04A0F57F41FF3911
:1034600004D101250A219748A0F8AD149548B0F879
:10347000AF04A0F57F41FF3904D101250121914816
:10348000A0F8AF148F48B0F8B104A0F57F41FF3920
:1034900009D18C48A0F8B114A0F8B31440F2FF3160
:1034A000A0F8B51401258748B0F8B704A0F57F410E
:1034B000FF3909D18348A0F8B714A0F8B91440F235
:1034C000FF31A0F8BB1401257E4890F8BD04FF2809
:1034D00004D100217B4880F8BD1401257948B0F85B
:1034E000BE04A0F57F41FF3906D07648B0F8C0048D
:1034F000A0F57F41FF3910D17621724880F8BE14C3
:10350000452180F8BF14A02180F8C014232180F841
:10351000C1141521A0F8E11401256A48B0F8E304AC
:10352000A0F57F41FF3906D06648B0F8E504A0F564
:103530007F41FF3910D17621624880F8E31445219C
:1035400080F8E414A02180F8E514232180F8E61423
:103550001521A0F8061501255A4890F8080548B12C
:10356000584890F80805012804D00121554880F8F2
:1035700008150125534890F80905FF2804D10125B5
:103580000021504880F809154E4890F80A05642833
:1035900004DB4C4890F80A05FA2804DD6421494808
:1035A00080F80A150125474890F80B05182804DB18
:1035B0000021444880F80B150125424890F80C057D
:1035C000182804DD18213F4880F80C1501253D48D6
:1035D000B0F80D0530B13B48B0F80D05A0F57F41BE
:1035E000FF3904D1012500213648A0F80D153548D2
:1035F000B0F80F05A0F57F41FF3904D10121314812
:10360000A0F80F1501252F48B0F81105A0F57F414E
:10361000FF3904D14FF480712A48A0F811152948C8
:10362000B0F8130530B12748B0F81305A0F57F4175
:10363000FF3904D1012550212248A0F81315214853
:10364000D0F8150520B11F48D0F81505401C05D14C
:1036500001254FF461511B48C0F815151948D0F8E1
:10366000190520B11748D0F81905401C05D10125CE
:1036700048F6A0411348C0F819151248D0F81D05A6
:10368000401C04D1012500210E48C0F81D150D482D
:10369000B0F82105A0F57F41FF3904D101250421AF
:1036A0000848A0F821150748B0F82305A0F57F4188
:1036B000FF3902D10348A0F8231500210148A0F8E2
:1036C000251503E0640500209E060020D0F827059C
:1036D000401C1CD18248D0F82B05401C17D18048D3
:1036E000D0F82F05401C12D17D48D0F83305401C7E
:1036F0000DD17C497A48C0F827157B49C0F82B15B5
:103700007A49C0F82F157A49C0F833150125744855
:10371000B0F87400A0F57F41FF3904D10A20704948
:10372000A1F8740001256E48B0F87600A0F57F413D
:10373000FF3904D10A206A49A1F8760001256848BA
:10374000D0F83B05401C04D13C216548C0F83B152E
:103750000125634890F85505182804DB06216048C8
:1037600080F8551501255E4890F85605FF2804D1CC
:1037700000215B4880F856150125594890F86A05E4
:10378000FF2804D101255BA1654818F01AFE5448B2
:10379000D0F84905401C04D13C215148C0F84915D6
:1037A00001254F48D0F84D05401C04D11E214C483E
:1037B000C0F84D1501254A4890F83705FF2804D177
:1037C0000021474880F837150125454890F838050D
:1037D000FF2804D10021424880F8381501254048CF
:1037E00090F83905FF2804D103213D4880F83915A8
:1037F00001253B4890F83A05FF2804D105213848B7
:1038000080F83A1501253648D0F83F05401C05D10F
:103810004FF461613248C0F83F1501253048D0F8B7
:103820004305401C05D14FF461612D48C0F8431594
:1038300001252B4890F84705FF2804D10F2128487F
:1038400080F847150125264890F84805FF2804D13F
:103850000F21234880F8481501252148D0F851054B
:10386000401C05D01E48D0F85105B0F5616F04D258
:103870002C491B48C0F851150125194890F85505E9
:10388000182804DB0621164880F8551501250DB1CE
:10389000FFF723FBBDE8F08110B5014600230C467D
:1038A00000BF002203E0A05C0344501C02B240F2BF
:1038B00032608242F7D3D1F83206984201D000201C
:1038C00010BD0120FCE71848006800F4E0601749CB
:1038D0000843001D14490860BFF3408F00BFFEE796
:1038E0006405002048221F4194851D21634128550D
:1038F000FFEBEC63436F6E672074792076616E2076
:103900007461692058595A0D0A4E676F20517579B4
:10391000656E20962048614E6F690D0A0000000018
:10392000CE0A0020805101000CED00E00000FA05F5
:103930000021BB4A1160002017E0002200EB800349
:10394000B749091D19444A7000EB8003B449091DA9
:10395000CA5400EB800319448A7000EB8003B0491D
:10396000091D1944CA70411CC8B20428E5DBAD49E1
:10397000096821F00F01AB4A11601146096841F056
:1039800008011160A7490C31096841F00101A54AFD
:103990000C321160A449096821F47021A24A116017
:1039A0001146096841F4002111609F490C310968F2
:1039B00041F010019C4A0C3211609B49091D0968B5
:1039C00021F00F01984A121D11601146096841F05B
:1039D0000801116094490C31096841F48071924AE0
:1039E0000C3211609049096821F470018E4A11600F
:1039F0001146096841F4000111608B490C310968D6
:103A000041F02001884A0C321160704730B50346FE
:103A1000834A1268521C824C226000BF814A0832DD
:103A2000126812F0010F06D022469279521CD4B2CD
:103A30007B4A947105E07A4AD279521CD4B2784A12
:103A4000D471794A0832126812F0100F06D0744A05
:103A5000D27A521CD4B2724AD47205E0704A127BF8
:103A6000521CD4B26E4A14736F4A0832126812F4B0
:103A7000807F06D06A4A127C521CD4B2684A147401
:103A800005E0674A527C521CD4B2654A5474664AB7
:103A90000832126812F0200F06D0614A527D521C83
:103AA000D4B25F4A547505E05D4A927D521CD4B28F
:103AB0005B4A94755C4A0832126802F480414FF404
:103AC0008042594C14342260574A121D126822F069
:103AD0007062554C241D22602246126842F08062BA
:103AE00022600A2000BF0200A0F10104E0B2FAD176
:103AF0004D4A121D126822F070624B4C241D226048
:103B00002246126842F08072226029B14FF480424E
:103B1000454C1434226004E04FF48042424C10348F
:103B20002260414A0832126812F4804F06D03C4AA3
:103B3000527D521CD4B23A4A547505E0384A927DFF
:103B4000521CD4B2364A947500205AE000EB80042F
:103B5000334A121D22449278012A0ED100EB8004D0
:103B60002F4A121D2244D2783AB9012400EB800575
:103B70002B4A121D2A44547015E000EB8004284A99
:103B8000121D2244927872B900EB8004244A121D5F
:103B90002244D278012A06D1002400EB8005204A75
:103BA000121D2A445470002400EB80051C4A121D8B
:103BB0002A44947000EB8005194A121D2A44D470DF
:103BC00000EB8004164A121D2244547800EB800555
:103BD000134A121D525D944211D0012400EB80055E
:103BE0000F4A121D2A44147100EB80040C4A121D66
:103BF0002244547800EB8005094A121D5455421C9A
:103C0000D0B20528A2DB30BD4FF400400549103189
:103C1000086070474FF40040024914310860704753
:103C2000B00B002000080140000C014010B5FE4818
:103C30000DF0C4FD10BD0020FC4908707047012044
:103C4000FA490870704710B5F9480088F849498862
:103C5000884215D0F748006890B9F74890F8670097
:103C600028B10020F44981F867000DF0E3FEF24826
:103C70000DF036FF20B9F048EE490860002010BD75
:103C80000120FCE72DE9FE4F0027EC480068401CAE
:103C9000EA490860EA48007840B1EA48006828B17B
:103CA000E948006810B1E948006848B9E34800688D
:103CB0007821B0FBF1F201FB120008B905F021FBFD
:103CC0000DF0A6FCE24901A809F07DFF01A809F06A
:103CD000A9FE0646DF48006810F0010F0AD1002057
:103CE000DD4908704FF49670DC4908800A20DC49F1
:103CF000087007E0D948008820B1D8480088401EE5
:103D0000D6490880D248806A012803D0D048806A0A
:103D100002282AD1CE484068732826DBCC48D14AF5
:103D2000D14BD0E90E81404619F01AF91DD0C84890
:103D3000CC4ACD4BD0E91081404619F011F914D08E
:103D4000C348C84AC84BD0E90C81404619F008F96D
:103D50000BD0BF48D0F89C0038B1304609F0B7FE10
:103D600018B13146C14809F069FFB948806A032893
:103D70007DD1B7484068712879DBB548406A002892
:103D800075DDB349D1E91A8100221346404619F086
:103D9000E7F86CD0AE49D1E91C81002213464046B9
:103DA00019F0DEF8F5D0AA480022B14BD0E91A810B
:103DB000404619F0D5F808D9A5480022AD4BD0E906
:103DC0001A81404619F0E0F87FD8A1480022AA4B9A
:103DD000D0E91C81404619F0C3F808D99C49D1E9C3
:103DE0001C810022A54B404619F0CEF86DD8A4489E
:103DF00001680068401CA24A10600A296ED3142092
:103E0000114608609348006810F0010F05D00120AA
:103E1000914908700020914908809A48007820B99B
:103E2000012098490870984908708948803000221C
:103E3000964BD0E90081404619F0A6F807D885488E
:103E4000006810F0010F02D1012091490870012093
:103E5000904908709049B1F8130519F034F882467A
:103E60007B488030D0E900834246504600E02CE099
:103E700019F076F811D8894809F093FD68B947F22E
:103E80003051864809F082FD8548006840F4007092
:103E90008349086001207C4908704FF4C8726C495E
:103EA000804818F014FA01207F490870304609F064
:103EB0000EFE48B131466D4809F0C0FE7B480068EF
:103EC00031187B4809F0BAFE08E000206C49086010
:103ED0006C48007810B101206B4908707548006883
:103EE000012809D10020734908600121724804F0BB
:103EF0000FF97249087013E06E480068022809D172
:103F000000206C49086002216B4804F001F96B49FC
:103F1000087005E0684866490A68026049684160BF
:103F2000464800681E21B0FBF1F201FB120058B9AF
:103F30005C48806A032807D15648007820B10020E9
:103F40005449087002F074FE41488030D0E90021E5
:103F5000104619F02DF805465949284619F044F83D
:103F600026D33B48806A032822DB394840686F2803
:103F70001EDB3748406A01281ADB35480022134609
:103F8000D0E91A81404618F0EBFF11D03049D1E951
:103F90001C8100221346404618F0E2FF08D02C484E
:103FA00000221346D0E90E81404618F0D9FF00D117
:103FB00000254448056101460868002119F014F8FD
:103FC0000ED140490869002119F00EF808D10124EA
:103FD00004E000203B4941F82400641C042CF8D381
:103FE000012407E0374850F82410601E354A42F893
:103FF0002010641C052CF5D3324805682F46324941
:10400000384618F08AFD804630480168404618F06E
:10401000F6FC2E4908602049B1F8130518F04EFF50
:104020008046394654E0000010300020680000202F
:1040300064030020A0000020E40B0020700000209A
:10404000AC170020D0030020C8030020CC030020C0
:10405000E02C00200808014081000020840000209E
:10406000820000208FC2F5285CFF584064020020C7
:1040700000805640008056C000806640008066C0C8
:104080007C00002080000020B400002000001440CC
:10409000AB00002078000020640500209C0C00206C
:1040A0005C000020702E0020A40000205802002098
:1040B0006C020020B8000020BC000020A9000020F5
:1040C0000000A040D00B002000006145B00000209F
:1040D00018F08AFF2ED20120FE490860FE480068D1
:1040E000022814D1FC480068401CFB4908600846BF
:1040F00000681E21B0FBF1F201FB120030B9F74855
:10410000B0F83900401CF549A1F8390000BFF24869
:1041100000680A2800D100BFEF480068142800D1C9
:1041200000BFED4800681E21B0FBF1F201FB120058
:1041300030B905E0E748006810B10020E5490860A3
:10414000E748B0F9000040F2DF71884203DA00204E
:10415000E44908705EE1E448016801A809F06EFDD9
:104160009DF90700DE4991F9031088420DD19DF9B0
:104170000600DB4991F90210884206D1BDF904001E
:10418000D749B1F9001088420CD0D54809F04AFC53
:10419000D54908604FF4A421D3480DF09DFB0120C0
:1041A000D2490870D2480078A0B3CD4809F03AFC53
:1041B000CD4908604FF4A421CB480DF08DFBFF20C2
:1041C000C649C8700021C54801714171C448407991
:1041D000C2498871C2488179C048C171C048C1795B
:1041E000BE4801720020BD49A1F84300A1F8390082
:1041F000A1F83100A1F83700A1F83B00A1F83D007B
:10420000A1F84100A1F83F00C1F82900C1F833002E
:10421000B7490870B5480078F0B30020B34908707A
:10422000FF20AE49C8700021AC48017141710020E7
:10423000AA49A1F84300A1F83B00A1F83900A1F870
:104240003100A1F83B00A1F83D00A1F84100A1F820
:104250003F00C1F833000846D0F82900E0B1A0487B
:104260004079C8B19E4809F0DDFB9C49D1F829107E
:10427000A0EB0108414601A809F0E0FC9DF9070008
:10428000974991F9031088420DD19DF8090093498F
:10429000C8709DF80A1000E00CE0904801719DF88C
:1042A0000B10417106E000208C49C87000218B483A
:1042B000017141718F48006848B98848D0F82900D9
:1042C00028B18648D0F8290078308A4908608A48A1
:1042D000006818F032FE814A213210605160384681
:1042E00018F02BFE7D4A1932106051607C484079ED
:1042F0007A4908707A48807948707948C07988701E
:104300007E49D1E91A01103A106051607B49D1E928
:104310001C0108321060516079484179807A41EA85
:1043200040017748C07B41EA80017548007D41EA41
:10433000C0006A4981F845007249B1F8130518F0C8
:10434000BDFD8046394618F04FFE14D8624800681B
:10435000401C61490860084600681E21B0FBF1F26C
:1043600001FB120050B95D48B0F83900401C5B49B0
:10437000A1F8390002E0002057490860574890F939
:10438000020061490978884207D0544880785E4924
:104390000870524802F0E9FF04E05C480068401CE5
:1043A0005A4908604D48D0F8290098B34C484079E4
:1043B0004A4988714A4881794848C1714848C17959
:1043C0004648017290F9030018280CDC434890F924
:1043D0000300424991F90610884204DC3F4890F9F5
:1043E0000300002816DA3E4809F01CFB3B49D1F8CF
:1043F0002910A0EB0108414601A809F01FFC9DF817
:1044000009003649C8709DF80A10344801719DF8BA
:104410000B1041713148D0F829003D4908602F4800
:10442000D0F82D003B4908603B49384618F0E6FDBE
:1044300004D93A48006810F0010F4AD12D480068AD
:1044400078281ED32548D0F82900401C2349C1F8FC
:1044500029000846D0F83300401CC1F83300002082
:10446000C1F82D002E480078022802D100202C49E6
:1044700008702B480078022808D1002029490870CC
:1044800004E01C480068401C1A4908601348D0F832
:1044900029101C48D0F81505B1FBF0F200FB1210F2
:1044A000B0B90E48D0F8290090B1164890F821050F
:1044B00010F0040F08D042F210700123642211465C
:1044C0000090194803F0F0FE0448B0F831002DE0E8
:1044D00033E087E0880000208C000020540C00208E
:1044E0006C020020A400002028120020A50000205B
:1044F000A600002098000020B0000020702E0020B0
:10450000B00B0020640500209000002094000020E3
:10451000B0110020BC1100200000A040080801409C
:10452000A8000020A7000020B0140020401CFE4975
:10453000A1F831000120FD490870FB48D0F8331084
:10454000FB48D0F81905B1FBF0F200FB1210E0B9FE
:10455000F548D0F83300C0B1F54890F8210510F0C7
:10456000040F08D042F2107001236422114600901B
:10457000F04803F099FEEC48B0F83700401CEA49D7
:10458000A1F837000120EC490870EB4800780128B9
:1045900011D10020E8490870E54890F8210510F095
:1045A000040F08D044F250600123322211460090DB
:1045B000E04803F079FEDD480078012842D1002070
:1045C000DA490870DA4890F8210510F0040F39D064
:1045D00044F250600123322211460090D54803F086
:1045E00063FE2FE0D048D0F82D00401CCE49C1F822
:1045F0002D000846D0F82D00B0F5617F04D30020CF
:10460000C1F82900CD490860CB48007802280AD0BB
:104610000220C94908700A20002364221146009034
:10462000C44803F041FEC148007802280AD00220A5
:10463000BE4908700A200023642211460090BD483C
:1046400003F032FEBE48007800287DD00020BC492F
:104650000870BC4809F0E6F9BB490860002081F801
:104660006600BA49BA48006818F021FA804618F086
:1046700037FCB549A1F85800B449B648006818F0AD
:1046800016FA804618F02CFCAF49A1F85A00B2493E
:10469000D1E91A01AC4A50609160AF49D1E91C01DF
:1046A000D0601161AC49D1E90E21104618F080FCB0
:1046B000A5494861A849D1E91A01A34A106251628B
:1046C000A548D0E91C109162D062A349D1E90E211E
:1046D000104618F06DFC9C4908630846876100206D
:1046E00088639D498831D1E90021104618F060FCAB
:1046F0009549C861002048648864A1F85C00A1F86D
:104700005E00A1F86000A1F86200A1F8640093487F
:10471000006848639248006808640020C8639148B4
:10472000007881F869009048006818F0D9FB864944
:1047300081F86A000020A1F85600874890F8980098
:1047400081F86800002000E049E0A1F856008748A1
:10475000006810F0010F06D00846B0F8560040F08F
:104760000100A1F856008248006810F0100F07D031
:104770007548B0F8560040F002007349A1F85600A1
:104780007B48006810F4807F07D06F48B0F856006F
:1047900040F004006C49A1F856007548006810F01C
:1047A000200F07D06848B0F8560040F0080066496E
:1047B000A1F856006D48006810F0010F0CD06D494B
:1047C000384618F01BFC07D25F48B0F8560040F09E
:1047D00010005D49A1F856005B480DF0C1F9BDE835
:1047E000FE8F012056490870704710B502460B46EF
:1047F0000020002103E0545C0444E0B2491C9942CB
:10480000F9D310BD2DE9F04F8FB004460D46914607
:104810002E46002030702870216805A809F00EFA95
:10482000434A55A107A819F0ADFA07A9304617F079
:1048300072FDBDF91400642190FBF1F201FB120737
:104840009DF91B009DF91A109DF919209DF917304B
:10485000CDE90032CDE902109DF916303A464AA161
:1048600007A819F08FFA07A9304617F054FD3C4805
:104870004DA1026807A819F085FA07A9304617F07C
:104880004AFD6768A16800221346384618F068FBA5
:104890000AD06768A3683A4646A107A819F072FAD9
:1048A00007A9304617F037FDE76821690022134653
:1048B000384618F055FB0AD0E76823693A4641A10B
:1048C00007A819F05FFA07A9304617F024FDA06980
:1048D000002118F089FB0DD0A06918F02EFB0746C7
:1048E0003A460B463BA107A819F04CFA07A93046F7
:1048F00017F011FDE069002118F076FB0DD0E0699A
:1049000018F01BFB07463A460B4636A107A819F0DC
:1049100039FA07A9304617F0FEFC6069002118F04B
:1049200063FB75D0606966E0540C0020A70000208E
:1049300064050020B0140020A8000020980000208A
:10494000B4000020640200201030002000007A44EF
:10495000C4000020C8000020702E0020B0000020FD
:10496000F4010020AC00002084020020080801406F
:10497000080C0140000070417B22646576223A22D7
:104980002573222C000000002274696D223A253024
:10499000326425303264253032642530326425306B
:1049A0003264253032642C00226F6C64223A256414
:1049B0002C000000226C6174223A25302E36662CC1
:1049C00000000000226C6F6E223A25302E36662CD5
:1049D0000000000022766770223A25302E32662CC5
:1049E0000000000022646972223A25302E33662CC2
:1049F000000000000CE018F0A0FA07463A460B460B
:104A000078A107A819F0BEF907A9304617F083FC72
:104A100094F8680048B194F8682076A107A819F0C6
:104A2000B1F907A9304617F076FC606B002118F049
:104A3000DBFA0DD0606B18F080FA07463A460B4659
:104A40006FA107A819F09EF907A9304617F063FC7B
:104A500094F8690048B194F869206DA107A819F08D
:104A600091F907A9304617F056FC94F86A0048B14E
:104A700094F86A2069A107A819F084F907A93046BB
:104A800017F049FC94F8560010F0010F07D066A10A
:104A900007A819F077F907A9304617F03CFC94F8FD
:104AA000560010F0100F07D062A107A819F06AF99C
:104AB00007A9304617F02FFC6069614918F09EFA8B
:104AC00007D260A107A819F05DF907A9304617F0D1
:104AD00022FC94F8560010F0400F07D05CA107A804
:104AE00019F050F907A9304617F015FC94F8560054
:104AF00010F0800F07D059A107A819F043F907A9B2
:104B0000304617F008FCB4F85800A8B1B4F85800C3
:104B100018F0D4F98346544917F0FFFF824618F085
:104B20000CFA07463A460B4650A107A819F02AF995
:104B300007A9304617F0EFFBB4F85800A8B1B4F855
:104B40005A0018F0BBF98346474917F0E6FF824642
:104B500018F0F3F907463A460B4648A107A819F0A2
:104B600011F907A9304617F0D6FB48A24BA107A8B8
:104B700019F008F907A9304617F0CDFB4AA107A89C
:104B800019F000F907A9304617F0C5FB94F86B003F
:104B900048B194F86B2046A107A819F0F3F807A9CB
:104BA000304617F0B8FB4548007860B143480278BA
:104BB00043A107A819F0E6F807A9304617F0ABFBA8
:104BC00000203E49087041A1304617F0A4FB304652
:104BD00017F0CBFBA9F8000000200FB0BDE8F08F64
:104BE0007047000022686470223A25302E32662C0D
:104BF0000000000022736174223A25642C0000003A
:104C0000226D696C223A252E3032662C000000009D
:104C100022626174223A25642C00000022736967C5
:104C2000223A25642C00000022616363223A312C71
:104C300000000000226D6977223A312C000000004C
:104C40000000204122677073223A312C00000000DE
:104C50002273706F223A312C0000000022736F73B0
:104C6000223A312C0000000000007A4422616E31AB
:104C7000223A25302E32662C0000000022616E326E
:104C8000223A25302E32662C000000004754343082
:104C900030564E5F322E39300000000022667772A7
:104CA000223A222573222C00226F7074223A30009F
:104CB0002C2263616D223A2564000000B9010020B6
:104CC0002C22636D64223A25640000007D0D0A00E9
:104CD0002DE9F04F87B0CD48C08800287DD0002056
:104CE000CB49086048608860CA4908603DE0C74910
:104CF000C848006831F91010C44AC6480068C01C92
:104D000032F91000A0F2D150081AC14909680844CC
:104D1000BF4908601146BF480068401C31F91010B7
:104D2000BC480068C01C32F91000A0F2D150081A2B
:104D3000B74949680844B64948601146B548006813
:104D4000801C31F91010B3480068C01C32F9100003
:104D5000A0F2D150081AAE4989680844AC4988606D
:104D6000AC480068001DAB490860AA4800680428E8
:104D7000BDD30020A549C880A54800680A2190FB42
:104D8000F1F0A3490860084640680A2190FBF1F061
:104D90009F494860084680680A2190FBF1F09C49D1
:104DA0008860086818F081F8019018F0C6F89A4AEF
:104DB0009A4BCDE9020117F097FF80468946984843
:104DC000006818F0BAF8824642464B4617F0E5FEF6
:104DD00006464FF06632934B00E075E017F0DDFEBB
:104DE00000224FF08043CDE9040117F0EFFF0446A5
:104DF00018F0DEF88A4908608549486818F055F8C7
:104E0000039018F09AF8844A844BCDE9040117F016
:104E10006BFF82468B468448006818F08EF8064681
:104E200052465B4617F0B9FE804600224FF08043A1
:104E300017F0CCFF044618F0BBF87B4908607449B2
:104E4000886818F032F8019018F077F880464FF033
:104E50006632764B17F048FF0022754BCDE9020110
:104E600017F0B4FF06460F467248006818F065F860
:104E700032463B46CDE9040117F08FFE044600227E
:104E80004FF0804317F0A2FF824618F091F869496D
:104E900008600846006818F050F80646664A674BF6
:104EA00017F01FFF8246664A664B17F08FFF0446D5
:104EB0000022654B17F071FE804618F079F86349BF
:104EC000086001206249087007B0BDE8F08F10B596
:104ED0000021012007F085FC5E4807F0FDF8002066
:104EE0004A49C88010BD00B591B00120ADF800005E
:104EF00000208DF803006946574806F079FEFFF759
:104F0000E6FF0121084607F06CFC01214FF4027016
:104F100007F074FC514806F0B7FF4E484C30019042
:104F20003A4802900020039004200490002005904D
:104F30008020069040000790800008902020099073
:104F400000020A9000200B9001A9444807F03EF8A7
:104F500000200C9001208DF834008DF835004FF4BE
:104F600060200E9000200F9004208DF840000CA9C6
:104F7000384807F0D8F8052301220921354807F001
:104F80006AF9052302220821324807F064F9052353
:104F9000032210212F4807F05EF905230422112176
:104FA0002C4807F058F901212C4807F03AF8012164
:104FB000284807F0EFF80121264807F0E0F8012023
:104FC00007F06EFA234807F0FCF800BF214807F00D
:104FD000FDF80028FAD11F4807F002F900BF1D486C
:104FE00007F003F90028FAD101211A4807F007F960
:104FF00000BF022007F030F80028FAD0022007F0A6
:105000003EF800201249087011B000BDE0000020F9
:10501000A80C0020DC000020EB51B81E852B703F4F
:10502000C40000206666E63FC800002066660A40AD
:105030000000B040CC000020E17A14AE47E1F63F1A
:1050400022FDF675E09C713F00003940D000002041
:10505000D500002000240140000C0140080002405F
:1050600010B51421FD4817F04BF910BD2DE9F043A0
:1050700089B0064689460027F94901A807F037FE9E
:1050800001A9304607F0A9FE05461DB30020F549E9
:105090000870F54908700120F449087005F10C000A
:1050A00007F0C4FDC4B26006040E9CB1A02C11D25E
:1050B000A021EF4817F024F9224605F10C01EC4835
:1050C00017F005F9EA4807F0B1FD80464146E84887
:1050D00007F0BCFD384609B0BDE8F08310B50446C2
:1050E000E4A1204608F0C7FE08B1E2A010BD0020F0
:1050F000FCE72DE9F74FDCB08A464FF0000B0026A5
:10510000002500200890079006905C9FDC49DD4850
:1051100007F0EDFDC6B2DB4807F088FD01460390BD
:10512000D84807F093FD7006060ED7A1384617F051
:10513000FEF80446D4B900201B9011E017F0B4F833
:1051400000681B99795C405C10F0080F05D01B9932
:10515000785C17F0B6F81B9978541B98401C1B908C
:10516000384617F002F91B998842E7D8C8480078FA
:105170002B2805D1C649491CC64817F022F903E07F
:10518000C349C44817F01DF9C3A1384617F0CFF83A
:105190000446002C45D0C3A11CA818F0F3FDC6B2EC
:1051A0001CA9C64807F0A3FDC6B2C44807F03EFDDF
:1051B00001460390C14807F049FD7006060E4FF006
:1051C000000819E008EBC80101EB4812BC4901EBEB
:1051D000420101F14300AF4908F04DFE40B101200A
:1051E000B8490870B84981F85C81FDF776FE06E0A1
:1051F00008F101001FFA80F8B8F10A0FE2DB00BFE6
:10520000032047F2305101223346CDE900210290BC
:105210009C4AA04991480AF038FB00205FB0BDE8E5
:10522000F08FAAA1384617F082F80446002C7DD0F2
:1052300016A817A918AA19ABCDE90032CDE90210BA
:105240001AAB1BAAA3A1204617F0C4F81B9840B2C2
:105250008DF813001A9840B28DF81200199800F5D5
:10526000FA6000B2ADF81000189840B28DF8150041
:10527000179840B28DF81600169840B28DF81700B6
:105280004FF000099DF913001F2803DC9DF913005E
:10529000002801DC4FF001099DF912000C2803DC05
:1052A0009DF91200002801DC4FF00109BDF9100042
:1052B00040F63301884205DCBDF9100040F2DC7194
:1052C000884201DA4FF001099DF91500182801DD27
:1052D0004FF001099DF916003C2801DD4FF001094E
:1052E0009DF917003C2801DD4FF00109B9F1000FCD
:1052F00005D07DA11CA818F045FDC6B22FE085A100
:10530000874818F03FFDC5B216A80BC8199ACDE919
:105310000023CDE902108249481982A1DDE91A3241
:1053200018F030FD2844C5B27D4900E035E0594809
:105330000AF03EFC81480499016005994160012111
:1053400002F0E6FEFF2805D17DA11CA818F01AFD89
:10535000C6B204E080A11CA818F014FDC6B21CA9B6
:10536000564807F0C4FCC6B2544807F05FFC01463B
:105370000390524807F06AFC7006060E032047F2BD
:10538000305101223346CDE9002102904B4A414978
:1053900032480AF07AFA002040E773A1384616F046
:1053A000C6FF0446002C58D016A817A918AA19AB96
:1053B000CDE90032CDE902101AAB1BAA6CA1204640
:1053C00017F008F81B9840B28DF813001A9840B2F5
:1053D0008DF81200199800F5FA6000B2ADF81000CF
:1053E000189840B28DF81500179840B28DF8160045
:1053F000169840B28DF817004FF000099DF9130080
:105400001F2803DC9DF91300002801DC4FF001097F
:105410009DF912000C2803DC9DF91200002801DC24
:105420004FF00109BDF9100040F63301884205DC58
:10543000BDF9100040F2DC71884201DA4FF0010939
:105440009DF91500182801DD4FF001099DF916009E
:105450003C2801DD4FF0010994E0F3E0D40C00207A
:10546000BAE70108E9000020EA000020EB00002074
:105470006C0E00203039373837373932323200007D
:10548000ACE70108B40C0020534D532C0000000081
:1054900098280020FC0C002044414E474E484150C3
:1054A000000000004B68C3B46E67207468C3A06E30
:1054B000682063C3B46E6721000000002C0D00203B
:1054C000C1060020A600002064050020494E313AA4
:1054D00000000000494E313A2564256425642564A6
:1054E00025642564000000005361692063E1BAA5CA
:1054F00075207472C3BA63210D0A494E313A206493
:1055000064206D6D207979206868206D6D2073733B
:105510000000000044616E6720696E2E2E2E000090
:105520000C0F00200A54494D453A25642F25642F5D
:1055300025642025643A25643A256400BC000020D7
:10554000496E206B68C3B46E67207468C3A06E6830
:105550002063C3B46E672100496E207468C3A06ED7
:10556000682063C3B46E6700494E323A0000000001
:10557000494E323A256425642564256425642564F2
:10558000000000009DF917003C2801DD4FF00109E3
:10559000B9F1000F06D0AFF2B0011CA818F0F2FB71
:1055A000C6B231E0AFF29401FE4818F0EBFBC5B291
:1055B00016A80BC8199ACDE90023CDE90210F949C4
:1055C0004819AFF2A001DDE91A3218F0DBFB2844DC
:1055D000C5B2F449F4480AF0EBFAF44804990160C2
:1055E00005994160022102F093FDFF2806D1AFF238
:1055F000B0011CA818F0C6FBC6B205E0AFF2A801C6
:105600001CA818F0BFFBC6B21CA9E94807F06FFB45
:10561000C6B2E74807F00AFB01460390E44807F0EA
:1056200015FB7006060E032047F230510122334667
:10563000CDE900210290DE4ADB49DE480AF025F977
:105640000020EBE5BAF1000F10D0DBA1384616F0D0
:105650006EFE04460CB101200690DAA1384616F021
:1056600066FE044624B10120069001E00120069068
:10567000D84816F07AFEC5B2062D01DA032500E0FF
:105680000625D448007830B32A46D349D14808F0DB
:105690009FFB00B30020CF4908703946C44816F07C
:1056A00090FE0020C24981F89F00084616F05DFE7A
:1056B000C6B20020BE498855032047F2305102226D
:1056C0003346CDE900210290B94AC449B9480AF0ED
:1056D000DCF8FF20A2E5069850B9BF48FFF7FEFCB2
:1056E0008346BBF1000F05D1069818B9FF2095E558
:1056F000DFF8B4B2AFF27021384616F018FE044657
:105700001CB35946B54816F05CFEB24AB4A1204617
:1057100016F060FEAF4816F028FE2044401D0146FA
:105720000390B34816F04DFEB14816F01EFEC6B207
:10573000032047F2305102223346CDE90021029086
:10574000AB4AA449AB480AF0A0F8ABA1384616F022
:10575000EEFD04469CB3AAA0012341F288320090DA
:10576000AA480168AAA008F089FD4FF47A7008F0F1
:1057700001F900201B9011E01B98102807D28C48DB
:105780001B99405C222802D100201B9002E01B984C
:10579000401C1B901B98A02800D308E084481B9A4B
:1057A00081189D48006807F0F9FE0028E4D000BF8A
:1057B00009E07F481B99405C222801D106E017E0F0
:1057C0001B98401E1B901B980028F2D100BF0020A0
:1057D00077491B9A8854032047F2305102223346FE
:1057E000CDE900210290724A594672480AF04DF8FC
:1057F0008AA1384616F09BFD04469CB389A001237C
:1058000041F2883200908148016881A008F036FD9D
:105810004FF47A7008F0AEF800201B9011E01B984E
:10582000102807D262481B99405C222802D1002030
:105830001B9002E01B98401C1B901B98A02800D3D3
:1058400008E05B481B9A81187348006807F0A6FEC1
:105850000028E4D000BF09E055481B99405C22288D
:1058600001D106E017E01B98401E1B901B980028F2
:10587000F2D100BF00204E491B9A8854032047F202
:10588000305102223346CDE900210290484A594660
:10589000484809F0FAFF66A1384616F048FD04466C
:1058A000002C61D0002510E0605D2A280BD0605DDF
:1058B000232808D0605D302802DB605D392802DDD6
:1058C0000020605503E0681CC5B2202DECDB00BF52
:1058D00059A0012342F210725CA1CDE900045DA041
:1058E00008F0CCFC41F2883008F044F800201B900E
:1058F00011E01B98102807D22D481B99405C2228E4
:1059000002D100201B9002E01B98401C1B901B98AA
:10591000A02800D308E026481B9A81183E4800685A
:1059200007F03CFE0028E4D000BF08E020481B99A7
:10593000405C222800D105E01B98401E1B901B985C
:105940000028F3D100BF002019491B9A8854032076
:1059500047F2305102223346CDE900210290144A29
:105960005946144809F091FF3CA1384616F0DFFC77
:10597000044674B10DAA3BA1204616F02BFD0DA8DC
:1059800017F030F881B23A48A0F8131501200890BA
:10599000079038A1384616F0CAFC044604B16DE001
:1059A00071E000000C0F0020FC0C0020BC00002067
:1059B0002C0D0020D40C00203132333435363738EA
:1059C00000000000544849454E484149424C554565
:1059D000000000000C0D0020982800201C0D002065
:1059E000534D532C255B5E2C203A090A0D235D0094
:1059F000CC0D0020E80C00202A31303123000000BB
:105A00004154442A313031233B0D000090020020E4
:105A10002B435553443A0000780200202A3130329B
:105A2000230000004154442A313032233B0D000052
:105A30002A3130302A00000041542B435553443D55
:105A4000312C222573222C31350D00004552524F46
:105A5000520000002B435553443A20004346472C44
:105A600032312C004346472C32312C257300000084
:105A7000640500204346472C343000000320FDF726
:105A8000F1F901200790C9A1384616F050FC0446F0
:105A9000ACB1C84AC8A1CA4818F074F9C84816F091
:105AA00064FCC6B2032047F2305102223346CDE9EE
:105AB00000210290C24A5946C24809F0E6FEC2A13E
:105AC000384616F034FC04462CB1C249C24807F0EF
:105AD0005DFF012007900622B6493431BF4808F027
:105AE00077F9012802D0BAF1000F7DD1BCA1384668
:105AF00016F01DFC0446B4B10DAABBA1204616F059
:105B000069FC10220DA9AB48643016F0E0FBB949DE
:105B10004819A84A6432B8A118F034F92844C5B22B
:105B2000012008900790B7A1384616F000FC044603
:105B3000B4B10DAAB5A1204616F04CFC10220DA957
:105B40009C48543016F0C3FBAA494819994A54326C
:105B5000B1A118F017F92844C5B2012008900790A8
:105B6000B0A1384616F0E3FB0446B4B10DAAAFA1CC
:105B7000204616F02FFC10220DA98E48443016F056
:105B8000A6FB9C4948198B4A4432ABA118F0FAF89D
:105B90002844C5B2012008900790AAA1384616F003
:105BA000C6FB044694B11BAB0DAAA8A1204616F073
:105BB00011FC1F220DA97F487D3016F088FB7D491E
:105BC0001B98A1F89C00012008900790A5A13846D9
:105BD00016F0ADFB0446A4B11BAB0DAAA3A1204651
:105BE00016F0F8FB1F2200E0C3E00DA97148A230B7
:105BF00016F06DFB6F491B98A1F8C10001200890B9
:105C00000790A0A1384616F092FB044654B10BF061
:105C1000FEFE784948199EA118F0B4F82844C5B290
:105C2000012007909DA1384616F081FB0446E4B19F
:105C30000BF0EDFE5F4912310DA816F0C2FBFF22FA
:105C400040F236615B4816F054FBFDF746F9FDF76C
:105C5000A4F90DA95748123016F0B3FBFDF73DF932
:105C60000320FDF7FFF8012007908EA1384616F0BB
:105C70005EFB04466CB10DAA8CA1204616F0AAFB6F
:105C800012220DA94B48123016F021FB012008907A
:105C9000079089A1384616F04AFB044674B10DAA54
:105CA00087A1204616F096FB88480D9901600E9951
:105CB00041600F99816001200890079084A13846C7
:105CC00016F035FB0446A4B109AB0DAA82A120460B
:105CD00016F080FB0DA816F085FE3649A1F8740079
:105CE00009A816F07FFE3349A1F87600012008903C
:105CF00007907DA1384616F01AFB044674B10DAA30
:105D00007BA1204616F066FB0DA816F06BFE81B253
:105D10002848A0F8AD14012008900790AFF2C421E4
:105D2000384616F004FB04467CB10DAAAFF2CC2134
:105D3000204616F04FFB0DA816F054FE81B21D4808
:105D4000A0F813150120089007906CA1384616F0B2
:105D5000EEFA04466CB10DAA6AA1204616F03AFB91
:105D600010220DA91348343016F0B1FA0120089022
:105D70000790BBF1000F12D0079880B1032047F2C3
:105D8000305101223346CDE900210290604A594644
:105D90000C4809F07AFD5FA1164816F012FB08982E
:105DA00008B1FDF79AF8FF204BE40000494D454942
:105DB0000000000064050020494D45493A25730064
:105DC0002C0D0020D40C002046575550444154451A
:105DD00000000000C027090034050020982800209A
:105DE0004346472C312C00004346472C312C257369
:105DF000000000000C0F00204346472C312C257377
:105E00000A0000004346472C322C00004346472C32
:105E1000322C2573000000004346472C322C25739A
:105E20000A0000004346472C332C00004346472C11
:105E3000332C2573000000004346472C332C257378
:105E40000A0000004346472C342C00004346472CF0
:105E5000342C255B5E2C203A090A0D235D3A25641B
:105E6000000000004346472C352C00004346472CD9
:105E7000352C255B5E2C203A090A0D235D3A2564FA
:105E8000000000004346472C31322C300000000057
:105E90004346472C31322D3E4F4B0A004346472C98
:105EA000313300004346472C31342C004346472C05
:105EB00031342C25730000004346472C31352C002B
:105EC0004346472C31352C2573000000F50900208E
:105ED0004346472C31362C004346472C31362C257F
:105EE0005B5E2F5D2F2573004346472C31382C0015
:105EF0004346472C31382C25730000004346472C7D
:105F000036302C004346472C36302C2573000000D9
:105F1000B40C00200D0A4F4B0D0A00001CB56C4656
:105F200004226946FE480CF0E2F8FE492068086049
:105F300008460068B0F1A53F33D104226946F8480D
:105F4000001D0CF0D4F8F849206808600846006885
:105F5000B0F1006F07D30020F4490860F2490860EF
:105F6000F349086026E004226946ED4808300CF049
:105F7000BEF8F0492068086008460068401C0AD155
:105F8000E8490860E9490860EB490860E6490860AB
:105F9000E74908601CBD0020E7490860E349086044
:105FA00008E00020E1490860E3490860DE49086034
:105FB000DF49086000BFEDE710B54022DF49E04847
:105FC00007F0C8FA4FF47A71DE4807F0DFFC10BD25
:105FD0000FB438B505A80090DB48009A049917F073
:105FE000E5FE054600200090FF2D00D3FF2500248C
:105FF00016E0D648007890B1D448007803280ED037
:10600000D148015DCE4807F0B4FA40B1D049CC4840
:1060100007F0C4FACC48015DC94807F0AAFA641C2D
:10602000AC42E6D3002038BC5DF814FB10B5024644
:106030000B460020002103E0545C0444E0B2491CFC
:106040009942F9D310BD2DE9F0478CB007460D46B3
:1060500014469846DDF850A0BE48007820B10020D4
:1060600038710CB0BDE8F0870120BA490870387962
:106070000D287DD00FDC7CD2DFE810F01C0043003F
:1060800047007B004B004F0053007B007B007B00F0
:106090007B007B005700FB286CD006DC0F286AD001
:1060A000112869D0122864D117E3FD287DD0FE287D
:1060B000F9D1F5E3A548007810B3BAF1000F1FD06D
:1060C0000020069006E00698401C06900698404581
:1060D00000D306E006982118994807F05FFA0028D7
:1060E000F1D000BF069858B103202871CA2028704B
:1060F00006986880AC606988A868FFF797FF2873E6
:1061000083E2002091490870FAE704208F49087063
:10611000F6E703208D490870F2E702208B490870EA
:10612000EEE7012089490870EAE7B8680078029034
:106130000298B968497840EA012002900298B9684B
:10614000897840EA014002900298B968C97840EA2B
:1061500001600290B8680079ADF80C00BDF80C0041
:10616000B968497940EA0120ADF80C00B86804E04C
:10617000A2E0EFE34AE289E1A1E2001D0490029867
:10618000B0F1A53F30D140F236600690CA202870A9
:106190000C202871688002AE3078207070786070B2
:1061A000B078A070F078E07000E0F2E340F2366082
:1061B000069006AE3078207170786071B078A0716A
:1061C000F078E071CDF8188000BF307820727078D8
:1061D0006072B078A072F078E072AC606988A868EC
:1061E000FFF724FF287366E00298B0F15A3F15D1FB
:1061F000CA2028700C2028710420688002AE3078F4
:10620000207070786070B078A070F078E070AC604A
:106210006988A868FFF70AFF28734CE0BDF80C10E6
:106220000298084440F2366188422CD8BDF80C0030
:10623000404528D84849029846180020069006E0B4
:106240000698315C001D21540698401C0690BDF84C
:106250000C0006998842F3D80698001D6880CA2071
:1062600028700C20287102AE307820707078607031
:10627000B078A070F078E070AC606988A868FFF72B
:10628000D5FE287317E04FF0FF300290CA20287027
:106290000C2028710420688002AE3078207070785D
:1062A0006070B078A070F078E070AC606988A86821
:1062B000FFF7BCFE287323E7B868007802900298C5
:1062C000B968497840EA012002900298B968897853
:1062D00040EA014002900298B968C97840EA01603A
:1062E0000290B868001D04900298B0F1A53F4BD110
:1062F000CA2028700D2028710C20688002AE3078EA
:10630000207070786070B078A070F078E07040F223
:106310003660069006AE30782071707860711DE0AE
:1063200004100200F80000200C01002010010020E1
:10633000F4000020080100201401002018110020A2
:10634000581100200C1100200C100020FC0000202F
:10635000FD000020FE00002064050020B078A07140
:10636000F078E071CDF8188000BF30782072707836
:106370006072B078A072F078E072AC606988A8684A
:10638000FFF754FE287380E0798802980844001FC4
:1063900040F23661884260D8FE49029846180020D3
:1063A000069006E006990498405C70540698401CDC
:1063B00006907888001F06998842F3D806990298BB
:1063C0000844029040F236610298884217D3FCF7E5
:1063D00084FDCA2028700D2028710420688002AE38
:1063E0003078207070786070B078A070F078E070CD
:1063F000AC606988A868FFF719FE2873AAE340F229
:106400003661A1EB08010298884205D940F2366155
:106410000298081A069001E0CDF8188008206880DC
:10642000CA2028700D20287102AE30782070707854
:106430006070B078A070F078E07006AE30782071AF
:1064400070786071B078A071F078E071AC606988A4
:10645000A868FFF7EBFD287317E04FF0FF300290BC
:10646000CA2028700D2028710420688002AE307880
:10647000207070786070B078A070F078E070AC60D8
:106480006988A868FFF7D2FD287363E30020C2493A
:106490000870B868007802900298B968497840EAB4
:1064A000012002900298B968897840EA0140029080
:1064B0000298B968C97840EA01600290B868001D86
:1064C00004900298B0F1A53F48D100F037FF0122B7
:1064D000B24804990DF06EFF18B14FF0FF300290F2
:1064E00012E0AE48C068AE4908600846006818B9B6
:1064F0004FF0FF30029007E0A9480068A9498842A0
:1065000002D304980EF0B5FDCA2028700F20287120
:106510000C20688002AE3078207070786070B0789F
:10652000A070F078E0709E4E3078207170786071C5
:10653000B078A071F078E071CDF8188006AE3078B0
:10654000207270786072B078A072F078E072AC60FF
:106550006988A868FFF76AFD287356E00298B0F1D1
:106560005A3F1AD18D480EF0FEF900F0F8FECA200D
:1065700028700F2028710420688002AE30782070C7
:1065800070786070B078A070F078E070AC60698866
:10659000A868FFF74BFD287337E000F0CFFE7F4877
:1065A000C06820B17D4802990EF0ACFA50B14FF0AE
:1065B000FF3002900420688078480EF0D4F900F093
:1065C000CEFE10E005AB4246211D74480DF0A4FF3D
:1065D00048B14FF0FF300290042068806F480EF001
:1065E000C2F900F0BCFE0598001D688002AE30784C
:1065F000207070786070B078A070F078E070AC6057
:106600006988A868FFF712FD2873A3E2B8680078CC
:1066100002900298B968497840EA012002900298F5
:10662000B968897840EA014002900298B968C9784F
:1066300040EA01600290B868001D04900298B0F131
:10664000A53F3BD16420012340F6B83201460090BB
:10665000554801F029FE002054490860012200211C
:1066600008460FF049F860B903200123642211465F
:1066700000904D4801F018FE4FF47A7007F07AF957
:106680000BE001200346642211460090464801F0C9
:106690000BFE4FF47A7007F06DF900F0C9FA00BFF5
:1066A0004348006800F4E06042490843001D404947
:1066B0000860BFF3408F00BF00BFFEE74AE2CA2078
:1066C0002870112028710C2068803BA0A860698880
:1066D000A868FFF7ABFC28733CE2B868007802902A
:1066E0000298B968497840EA012002900298B96896
:1066F000897840EA014002900298B968C97840EA76
:1067000001600290B868001D04900298B0F1A53FA6
:1067100066D12D492D4807F039F94FF0A5302C49A5
:10672000086000202B490860049800782A49086016
:1067300004984078096841EA0020274908600498D5
:106740008078096841EA0040234908600498C078CD
:10675000096841EA006020490860049800791F49EF
:10676000086004984079096841EA00201B490860E4
:1067700004988079096841EA004018490860049843
:10678000C079096841EA00601449086001214FF4AA
:10679000043026E064050020FC0000207012002078
:1067A00000010020E0CC0700B0140020FC01002014
:1067B0000CED00E00000FA054754343030564E5FCF
:1067C000322E393000000000C02709000C110020D3
:1067D000F8000020100100200C010020080100201A
:1067E00045E00BF0B2FAF94E04223146F8480BF0BE
:1067F00003FC4FF0A530069006AE04223146F44863
:10680000001F0BF0F9FBF34E04223146F048001D47
:106810000BF0F2FBCA202870122028710C2068802F
:1068200002AE3078207070786070B078A070F07828
:10683000E070E6480068069006AE30782071707807
:106840006071B078A071F078E071CDF8188000BF69
:106850003078207270786072B078A072F078E07250
:10686000AC606988A868FFF7E1FB287320E1DA498A
:1068700002980968884253D1798802980844001F19
:106880000690D549069808607888A0F10409B8F107
:10689000200F37D3B9F1200F34D3002006902EE01B
:1068A00037E1069B049AD118029A02F50832D018F3
:1068B00020220BF0A1FB029901F50831069A8818F5
:1068C000202207A90BF013FC0020059011E0DDE960
:1068D000052111440498405C07A9895C884205D0D1
:1068E000BE480068BC490860CDF818900598401C67
:1068F000059005982028EAD306982030069006983F
:106900004845CED3B4480068B4490968401AB0F588
:10691000805F05D3B0480068000B0003AF490860F2
:10692000AD4800680290AC480068A84909688842F0
:106930007ED34FF000090020069005E0FF20069965
:1069400060540698401C069006982028F6D3002034
:1069500006900DE0FDE09D49096801F50831069AB1
:106960008818202221460BF047FB0698203006901D
:106970000698B0F5806FEED30020069028E0202224
:106980002146069800F508300BF0B1FB0020059079
:106990000FE08EE0DDE9051008448C490968884263
:1069A00003D20598205C814400E005E00598401C76
:1069B000059005982028EDD300BFDDE905100844B7
:1069C00082490968884200D307E006982030069083
:1069D0007E49069809688842D1D300BF7D48006887
:1069E000814533D10220FCF73DFA4FF05A307C4903
:1069F0000860029000207849086001214FF40430BB
:106A00000BF0A3F9714E0422314671480BF0F4FAF1
:106A1000704E042231466E48001D0BF0EDFA4FF423
:106A20000830069006AE042231466948083000E07E
:106A300029E00BF0E1FA4FF05A30069000BF042233
:106A400031466348001F0BF0D7FA1CE04FF0A53029
:106A500063490860002002905F49086001214FF4FB
:106A600004300BF072F9594E0422314658480BF0AD
:106A7000C3FA4FF0A530069006AE042231465448C2
:106A8000001F0BF0B9FACA202870122028710420C8
:106A9000688002AE3078207070786070B078A07036
:106AA000F078E070AC606988A868FFF7BFFA2873D7
:106AB00050E0B868007802900298B968497840EAD6
:106AC000012002900298B968897840EA014002905A
:106AD0000298B968C97840EA01600290B868001D60
:106AE00004900298B0F1A53F12D13E4907A815F0D5
:106AF00068FCFF2240F236613A4815F0FAFB07A91C
:106B0000384815F05EFCFCF7E8F90120FCF7AAF91B
:106B100020E0B868007802900298B968497840EAA5
:106B2000012002900298B968897840EA01400290F9
:106B30000298B968C97840EA01600290B868001DFF
:106B400004900298B0F1A53F02D10120FCF78AF928
:106B500000E000BF00BF002038712349087000BF6B
:106B6000FFF77FBA10B50446207806285AD2DFE82E
:106B700000F0590C1D214D03CA2A05D101202070B7
:106B8000002060806072E0804FE06088A37902FAA4
:106B900003F318436080E0880830E080E088102824
:106BA00003DB022020700020E0803EE02272032000
:106BB00020703AE0E0886388984203DA6088A3880E
:106BC000984213DD052020701FE000000C0100201A
:106BD000081002000801002010010020140100200C
:106BE000F800002064050020FE000020607A1044B8
:106BF0006072E3888868C254E088401CE080E088C6
:106C00006388984201D1042020700EE00520207096
:106C1000607A904205D160884880207A087100200F
:106C200010BD02E00520207000BF00BFFF20F7E785
:106C300070B5FB4CFB4800782070FA4840786070D3
:106C4000F8488078A070F84CF648C0782070F54875
:106C500000796070F3484079A070F44CF148807975
:106C60002070F048C0796070EE48007AA070F0485B
:106C7000D0E91A2110460AF0EBFDEE490860EC4815
:106C8000D0E91C2110460AF0E3FDEB490860EB480F
:106C9000006816F052F905460AF0DAFDE849086086
:106CA000E048D0F82900E7490860DE48D0F82D0018
:106CB000E5490860DB48B0F83100DA49B1F837102F
:106CC00040EA0140E1490860D648D0F83300E04985
:106CD0000860D448B0F83900D249B1F83B1040EA16
:106CE0000140DC490860CF48B0F83D00CD49B1F81B
:106CF0003F1040EA0140D8490860CA48B0F8410056
:106D0000C849B1F8431040EA0140D4490860D44C66
:106D1000C44890F845002070C24890F84600607062
:106D2000C349D1E90E2110460AF092FDCD49086011
:106D3000BF498831D1E9002110460AF089FDCA49CE
:106D40000860CA480068CA4908604FF48421B44802
:106D50000AF0C2FD4FF48621B3480AF0BDFD4FF49E
:106D60008821B2480AF0B8FD4FF48A21B1480AF0F0
:106D7000B3FD4FF48C21B0480AF0AEFD4FF48E21E4
:106D8000AF480AF0A9FD4FF49021AE480AF0A4FDE7
:106D90004FF49221AC480AF09FFD4FF49421AB4888
:106DA0000AF09AFD4FF49621A9480AF095FD4FF498
:106DB0009821A8480AF090FD4FF49A21A6480AF0BD
:106DC0008BFD4FF49C21A5480AF086FD4FF49E21CF
:106DD00020460AF081FD4FF4A021A2480AF07CFD74
:106DE0004FF4A221A0480AF077FD4FF4A421A14856
:106DF0000AF072FD4FF4A6219D480AF06DFD0020B7
:106E000070BD2DE9F0419C480AF0D8FC4FF4842174
:106E100083480AF02DFD4FF4862183480AF028FDAF
:106E20004FF4882181480AF023FD4FF48A218148DC
:106E30000AF01EFD4FF48C217F480AF019FD4FF433
:106E40008E217F480AF014FD4FF490217D480AF00E
:106E50000FFD4FF492217C480AF00AFD4FF4942173
:106E60007A480AF005FD4FF4962179480AF000FDB2
:106E70004FF4982177480AF0FBFC4FF49A217648AA
:106E80000AF0F6FC4FF49C2174480AF0F1FC4FF430
:106E90009E2173480AF0ECFC4FF4A02171480AF0DF
:106EA000E7FC4FF4A22170480AF0E2FC4FF4A42161
:106EB00070480AF0DDFC4FF4A6216D480AF0D8FCBA
:106EC0006B48006869490968884211D968490868AF
:106ED00006F0FDFD60B166480168684806F0AEFE48
:106EE00063480068664A12688118664806F0A6FE84
:106EF0004B4C207840B24B490870607840B24870E3
:106F0000A07840B28870484C207840B2C870607851
:106F100041B244480171A07841B242484171434CAA
:106F2000207840B23F498871607841B23D48C171D4
:106F3000A07841B23B4801723E49086815F0FDFF58
:106F4000384A0932106051603B49086815F0F5FF76
:106F5000344A1132106051600021083211605160D2
:106F60003749086815F0E9FF2E4A21321060516058
:106F7000344800682B49C1F8290033480068C1F83B
:106F80002D0032480088A1F8310031480068C1F86E
:106F900033002E4800684FF6FF7101EA1040214986
:106FA000A1F837002B480088A1F83900294800686B
:106FB0004FF6FF7101EA10401A49A1F83B0026483C
:106FC0000088A1F83D00244800684FF6FF7101EAEF
:106FD00010401449A1F83F0020480088A1F8410062
:106FE0001E4800684FF6FF7101EA10400D49A1F8F4
:106FF00043001B4C207881F84500607881F84600FA
:107000000C4805680C48D0F800800021284615F08F
:10701000EBFF39D25320064981F8500038E00000D8
:1070200068110020540C00207411002080110020F1
:10703000702E00208C11002098110020B00000203C
:10704000A4110020B0110020BC110020C8110020A4
:10705000D4110020E0110020EC110020F8110020D4
:1070600004120020101200201C12002050020020E8
:10707000341200202812002010300020640200206A
:10708000580200206C0200204E20FC4981F850007C
:107090000021404615F0A8FF04D25720F74981F897
:1070A000600003E04520F54981F86000F449086874
:1070B00015F043FFF14AC2E90E01F249086815F0E4
:1070C0003CFFEE4A883203C2404615F036FFEB4AD9
:1070D000C2E91C01284615F030FFE84AC2E91A014E
:1070E00010460022E84BD0E91A61304615F038FF0F
:1070F00008D9E249D1E91A610022E44B304615F083
:1071000043FF17D8DD480022E14BD0E91C6130462F
:1071100015F026FF08D9D9480022DE4BD0E91C61C2
:10712000304615F031FF05D80320D449886201208C
:10713000486206E00020D14A9066D06600211167BF
:1071400051670020BDE8F08108B5D348007D90B1BB
:10715000D24890F8210510F0040F07D00520012334
:10716000322211460090CE4801F09EF80020CD4911
:107170000870FF2008BD02F0C4F8CA48007848B182
:1071800001200346322211460090C54801F08CF8D8
:107190000020EFE7C14890F8210510F0040F07D058
:1071A00005200123322211460090BD4801F07CF8F1
:1071B000FF20DFE710B5A2B00446B748007D10B944
:1071C000B848007828B90020B6490870FF2022B0DE
:1071D00010BD214611A80DF0DDFDB3490870084629
:1071E0000078012802D10020AE490870AE4800782E
:1071F00008B10020EBE725E01AA911A80DF00EFE5A
:10720000A94908700846007810B99DF8710000B9C6
:1072100019E09DF871002E2800D113E00DF17103E3
:107220002246A2A101A816F0ADFD9DF8700010F055
:10723000100F03D001A8FFF7BDFF02E001A80DF079
:1072400018FF00BFD8E700BF20460DF012FF002056
:10725000BDE700B599B09048007D10B9914800781D
:1072600028B900208F490870FF2019B000BD91484F
:1072700001681791406818908F4917A806F005FD1E
:107280009DF95E30BDF95C208CA102A816F07AFD54
:1072900002A8FFF78FFF8CA10EA80DF07BFD82499D
:1072A0000870052807D188A00DF044FF7E490870BA
:1072B00008B1FF20D9E77C480078C0B97D4890F933
:1072C0000230B0F900207DA102A816F05BFD02A9F2
:1072D0000EA80DF05FFD74490870052807D102A8BB
:1072E0000DF028FF7049087008B1FF20BDE76E4817
:1072F0000078E0B96F4890F9030000906D4890F96C
:107300000230B0F9002071A102A816F03BFD02A9DD
:107310000EA80DF03FFD64490870052807D102A8AA
:107320000DF008FF6049087008B1FF209DE75E4836
:10733000007808B1FF2098E7002096E710B568486C
:10734000007828B100206649087066480DF00BFBF4
:107350000120654908701E206449087010BD002096
:107360006149087061490870704730B591B00446B2
:107370004948007D10B94B48007828B90020494998
:107380000870FF2011B030BD5748007848B1574809
:10739000007830B155480078401E54490870FF20ED
:1073A000F0E73E4890F85C01424991F90510414AE6
:1073B00092F90320CDE9002102903E4890F9023075
:1073C000B0F900204AA105A816F0DCFC049005A93C
:1073D0004E48049A14F0E8FFD8B105A94B4814F0C0
:1073E000F0FFFFF736FF3E48007810B13D480DF042
:1073F000BAFA132205A93B480CF0DCFF30B105A90D
:10740000424814F0DEFFFFF724FF02E00120344978
:1074100008703348007808B33248C0684721B0FB91
:10742000F1F0C0EBC00101EB801529462D480DF0AD
:1074300069FB1D490870F8B9462120460AF064F935
:1074400084F8460004AB4722214626480DF03CF95B
:1074500090B9049847285ED1002093E7132205A92C
:1074600020480CF0A7FF1049087030B105A9274843
:1074700014F0A7FFFFF7EDFE4DE049E0702E00206D
:10748000101200201C12002000805640008056C0C0
:1074900000806640008066C0B00B002064050020BC
:1074A000B0140020AC1700202001002025732F25E8
:1074B000730000006C020020002A7CFF4C4F472F15
:1074C00025645F25303264004C4F47004C4F472FF6
:1074D00025645F253032642F2530326400000000BF
:1074E0001801002070120020190100201A0100204C
:1074F0004C4F472F25645F253032642F253032648E
:107500002F25645F25642E6C6F67000040120020F9
:107510000120FA490870FF2034E72DE9F043ADF56A
:107520002D7D81460C4690460025F548006820B127
:10753000FF200DF52D7DBDE8F0830120F0490860A6
:10754000F048007D10B9F048007820B90020EE49DD
:107550000870FF20EDE794F9056052E094F903000C
:107560008DE8410194F90230B4F90020AFF28001B6
:1075700016A816F007FC012216A923A80CF01AFF82
:10758000E2490870B0BB47212698B0FBF1F0C0EB90
:10759000C00101EB8015472D32D32FE0473D29462E
:1075A00023A80DF0AFFA22AB472204A923A80CF0C0
:1075B000B3FFD649087008460078E0B922984728FA
:1075C00019D19DF9110094F90610884213DC462167
:1075D00004A80AF099F807469DF85600B8420AD167
:1075E000472204A9484614F072FE23A80DF0BBF907
:1075F00000209EE704E023A80DF0B5F9002DCDDCB6
:10760000761E002EAADAFF2093E72DE9F04FADF5A4
:10761000437D04460026204606F004FA90904FF081
:10762000FF088DA8909906F009FB002794F905A0A2
:1076300058E0002551E094F90300CDE901A5009040
:1076400094F90230B4F90020AFF25C11B5A816F03D
:1076500099FB0122B5A903A80CF0ACFEAB49087058
:1076600098BB47210698B0FBF1F0C0EBC00101EBDD
:107670008016473E314603A80DF044FA8FAB4722EF
:10768000A3A903A80CF048FFA04908700846007899
:10769000E0B98F98472819D14822A3A991A814F0DE
:1076A00016FE4621A3A80AF02FF881469DF88A12FB
:1076B00049450BD19DF94502B84207DB9DF845725B
:1076C00005F0FF084FF0000A09E002E003A80DF002
:1076D0004AF903A80DF047F96D1C0A2DABDB00BF7A
:1076E000AAF1010ABAF1000FA3DA03A80DF03BF9E1
:1076F000B8F1FF0F0AD186A003F068F98BA003F060
:1077000065F9FF200DF5437DBDE8F08F8F4803F04C
:107710005DF98FA003F05AF98C4AD93A94A1A3A835
:1077200016F030FBA3A803F051F908EBC80000EBFA
:107730004811924800EB410291A1A3A816F022FB48
:10774000A3A803F043F908EBC80000EB48118B48ED
:1077500000EB410000F120028CA1A3A816F012FB5F
:10776000A3A803F033F98D4A8DA1A3A816F00AFB54
:10777000A3A803F02BF976A003F028F994F90700E9
:10778000009094F9063094F905208AA1A3A816F078
:10779000F9FAA3A803F01AF9B4F90000A0F5FA6009
:1077A000009094F9023094F903208AA1A3A816F05E
:1077B000E9FAA3A803F00AF965A003F007F9002786
:1077C0002068C1906068C29094F905506EE094F909
:1077D00003008DE8210194F90230B4F90020AFF2E2
:1077E000F021B5A816F0CEFA0122B5A903A80CF035
:1077F000E1FD46490870002857D100BF472106988F
:10780000B0FBF1F0C0EBC00101EB80164AE0473E4F
:10781000002E47DB314603A80DF074F98FAB4722E9
:10782000A3A903A80CF078FE384908700846007830
:10783000B8BB8F98472835D14822A3A991A814F046
:1078400046FD4621A3A809F05FFF81469DF88A0204
:10785000484527D19DF844028DF809039DF845025B
:107860008DF80A039DF846028DF80B03C1A806F0B7
:10787000D9F8834690998B4514DC781CC7B2DDF8A3
:107880005D12DDF861023A46CDE9001059A1A3A8C6
:1078900016F078FAA3A803F099F80A2F02DB002566
:1078A00002E0FFE7002EB2DC00BF6D1E002D8EDA75
:1078B00003A80DF058F826A1A3A816F063FAA3A810
:1078C00003F084F850A003F081F800201AE72DE9B6
:1078D000F04FADF56D7D044600264FF0FF092046C0
:1078E00006F0A0F8079008A8079906F0A7F900206D
:1078F0000A9094F90500EB90E7E0000018010020E1
:107900001C010020B00B0020AC170020200100203B
:107910004B686F6E672074696D20746861792064AC
:1079200075206C6965750D0A0000000058696E20AD
:107930006861792063686F6E2074686F6920676979
:10794000616E206B6861630D0A000000CE0A0020A2
:107950002D2D2D2D2D2D2D2D2D2D2D2D2D2D2D2D57
:107960002D2D2D2D2D2D2D2D2D2D2D0D0A00000011
:10797000424B533A2025730D0A000000C106002037
:107980004C583A2025730D0A00000000536F204721
:10799000504C583A2025730D0A0000006C05002059
:1079A000536F2073652D72692047504C583A2573E8
:1079B0000D0A000054686F69206469656D20696E66
:1079C0003A20253032643A253032643A2530326428
:1079D0000D0A000020202020202020202020202010
:1079E0002020253032642F253032642F2530326438
:1079F0000D0A000025643A20252E303366206B6D79
:107A00002F680D0A0000000020200D0A0000000071
:107A1000002554E094F90310EB98CDE9010500919D
:107A200094F90230B4F90020AFF23C5153A816F09B
:107A3000A9F9012253A961A80CF0BCFCFA4908700D
:107A4000002838D147216498B0FBF1F0C0EBC001A9
:107A500001EB8016473E314661A80DF053F806ABA6
:107A6000472241A961A80CF057FDEF49087008466C
:107A70000078E8B9069847281AD1482241A92FA8CA
:107A800014F025FC462141A809F03EFE80469DF8F1
:107A9000021141450CD19DF9BD100A98814207DBC6
:107AA0009DF8BD000A9005F0FF090020EB9008E06A
:107AB00061A80CF058FF61A80CF055FF6D1C0A2D51
:107AC000A8DB00BFEB98401EEB90EB9800289FDAF4
:107AD00061A80CF048FFB9F1FF0F0CD1AFF2D01044
:107AE00002F074FFAFF2BC1002F070FFFF200DF542
:107AF0006D7DBDE8F08FCD4802F068FFAFF2B010A9
:107B000002F064FFC94AD93AAFF29C1141A816F0BD
:107B100039F941A802F05AFF09EBC90000EB4911FD
:107B2000C34800EB4102AFF2A81141A816F02AF9B0
:107B300041A802F04BFF09EBC90000EB4911BC481A
:107B400000EB410000F12002BAA141A816F01AF999
:107B500041A802F03BFFBB4ABBA141A816F012F9B5
:107B600041A802F033FFAFF2182002F02FFF94F982
:107B70000700009094F9063094F90520AFF2CC117B
:107B800041A816F0FFF841A802F020FFB4F9000068
:107B9000A0F5FA60009094F9023094F90320AFF256
:107BA000CC1141A816F0EEF841A802F00FFFAFF299
:107BB000602002F00BFF20685F906068609094F98D
:107BC000055060E094F903008DE8210294F9023039
:107BD000B4F90020AFF2E86153A816F0D3F80122FF
:107BE00053A961A80CF0E6FB8F490870002849D121
:107BF00000BF47216498B0FBF1F0C0EBC00101EB7E
:107C000080163CE0473E002E39DB314661A80CF07F
:107C100079FF06AB472241A961A80CF07DFC82499F
:107C200008700846007850BB0698472827D148229C
:107C300041A92FA814F04BFB462141A809F064FD8F
:107C400080469DF80201404519D19DF8BC008DF891
:107C500081019DF8BD008DF882019DF8BE008DF870
:107C600083015FA805F0DEFE834607998B4506DC9D
:107C700048222FA91DA814F02AFB002501E0002EA0
:107C8000C0DC00BF6D1E002D9CDA61A80CF06BFEFD
:107C9000BDF8AD2071A141A816F074F841A802F01A
:107CA00095FEBDF8AD0000287CD0BDF8AD704FF05A
:107CB000000A48221DA90BA814F009FB9DF9745075
:107CC0000AE19DF923008DE821029DF92230BDF9DA
:107CD0002020AFF2E47153A816F054F8012253A902
:107CE00061A80CF067FB50490870002879D100BFEB
:107CF00047216498B0FBF1F0C0EBC00101EB8016A6
:107D0000E5E0473E002EFBDB314661A80CF0FAFEB1
:107D100006AB472241A961A80CF0FEFB424908705E
:107D2000084600780028EBD106984728E8D1482279
:107D300041A92FA814F0CBFA462141A809F0E4FC90
:107D400080469DF802014045DAD19DF8BC008DF8CF
:107D500081019DF8BD008DF882019DF8BE008DF86F
:107D600083015FA805F05EFE83460798834559DCD2
:107D7000BDF8F500B84256D0781E87B20AF101006E
:107D80001FFA80FA52463BA141A815F0FBFF41A81B
:107D900002F01CFE9DF9830100909DF982319DF94E
:107DA000812100E09BE036A141A815F0EBFF41A83E
:107DB00002F00CFEDDF83D20DDF84110104608F021
:107DC0005EFFCDE90401DDF83520DDF839101046FD
:107DD00008F055FFCDE90201DDE90401CDE900011C
:107DE00000E078E02BA141A8DDE9022315F0CAFFED
:107DF00041A802F0EBFDDDF84500DDF84910CDE9C2
:107E0000000110480838B0F8132526A141A815F044
:107E1000B9FF41A802F0DAFDBAF1050F00DA0FB997
:107E2000002557E053E04DE020010020CE0A00205D
:107E3000C1060020536F2047504C583A25730D0A55
:107E4000000000006C050020536F2073652D7269DF
:107E50002047504C583A2025730D0A00536F206C70
:107E6000616E2076756F7420746F6320646F3A259D
:107E7000640D0A004C616E2025643A200000000069
:107E8000253032643A253032643A253032640D0AA6
:107E900000000000252E3036662C252E3036660D6B
:107EA0000A000000544443502F544454543A2025AF
:107EB0002E3033642C252E303366206B6D2F683BBB
:107EC0000D0A000048222FA90BA814F000FA002E7A
:107ED0003FF717AF00BF6D1E002DBFF6F2AE61A8D1
:107EE0000CF041FDBDF8AF20BFA141A815F04AFF3D
:107EF00041A802F06BFDBDF8AF0000287ED0BDF8B0
:107F0000AF704FF0000A9DF97450ADE094F9030092
:107F10008DE8210294F90230B4F90020AFF6302147
:107F200053A815F02FFF012253A961A80CF042FAC3
:107F3000B349087000287DD100BF47216498B0FB89
:107F4000F1F0C0EBC00101EB801688E0473E002E47
:107F500071DB314661A80CF0D5FD06AB472241A983
:107F600061A80CF0D9FAA6490870084600780028E4
:107F700075D10698472872D1482241A92FA814F03C
:107F8000A6F9462141A809F0BFFB80469DF80201F1
:107F9000404564D19DF8BC008DF881019DF8BD007D
:107FA0008DF882019DF8BE008DF883015FA805F071
:107FB00039FD83460798834551DCBDF8F700B84288
:107FC00048D0781E87B20AF101001FFA80FA5246A3
:107FD000AFF2601141A815F0D5FE41A802F0F6FC01
:107FE0009DF9BE0000909DF9BD309DF9BC20AFF217
:107FF000701141A815F0C6FE41A800E037E002F07C
:10800000E5FCDDF83D20DDF84110104608F037FEB4
:10801000CDE90401DDF83520DDF83910104608F00F
:108020002EFECDE90201DDE90401CDE90001AFF248
:108030009C1101E017E012E041A8DDE9022315F0F0
:10804000A1FE41A802F0C2FCBAF1050F00DA37B96F
:10805000002507E048222FA90BA814F038F9002EBC
:108060003FF774AF00BF6D1E002DBFF64FAF61A884
:108070000CF079FCAFF2287141A815F083FE41A8FD
:1080800002F0A4FCDDF89D004FF46161B0FBF1F259
:1080900001FB12013C20B1FBF0F00590DDF89D10D2
:1080A0004FF46160B1FBF0F00490024655A141A885
:1080B000059B15F067FE41A802F088FCDDF8A700DB
:1080C0004FF46161B0FBF1F201FB12003C21B0FB07
:1080D000F1F00590DDF8A7004FF46161B0FBF1F01D
:1080E000049002464CA141A8059B15F04BFE41A807
:1080F00002F06CFCAFF2A87141A815F043FE41A854
:1081000002F064FCAFF2007002F060FC0020EEE4CC
:108110002DE9F04104460D46002700204349086040
:1081200094F903001F2804DD94F90300002800DC03
:10813000012794F902000C2804DD94F902000028BC
:1081400000DC0127B4F9000040F63301884206DD67
:10815000B4F9000040F2DC71884200DA012794F99A
:108160000500182800DD012794F906003C2800DDF1
:10817000012794F907003C2800DD01272FB10120D9
:108180002A490860FF20BDE8F0812948007D10B928
:108190002848007838B90020264908700120234972
:1081A0000860FF20EFE72449096848084FF416519A
:1081B00002F042FB012D04D12046FFF788FB46B2B6
:1081C00005E0022D03D12046FFF71FFA46B21A49F7
:1081D000096848084FF4E13102F02EFB01201349F1
:1081E0000860F0B2CFE70000536F206C616E206D25
:1081F0006F206375612078653A25640D0A000000E0
:10820000200100204C584C543A202530326420255F
:108210003032640D0A0000004C58544E3A2025308C
:10822000326420253032640D0A000000FC01002079
:10823000B00B0020AC170020E001002030B5024652
:10824000164800684FF47A71B0FBF1F05043401EBD
:108250004FF0E021486148170921002807DA0B0791
:108260001D0E0F4B00F00F04241F1D5503E00B07DC
:108270001C0E0C4B1C5400BF00204FF0E021886105
:108280000720086130BD00204FF0E02108617047F1
:1082900010B505F04BFB0EF047FB10BDE0010020D0
:1082A00018ED00E000E400E030B5039C4569A5420C
:1082B0000AD1056945B1457B9D4205D105688D42CE
:1082C00002D14568954206D0016042600025856074
:1082D00043730461446130BD08B56848006820F00C
